:03000000020F4E9E
:100F4E00787FE4F6D8FD9000007F007E08E4F0A3E1
:0A0F5E00DFFCDEFA758120020FA30C
:10144700410005004100060041000B014200180061
:1014570000420007000041000E0041000C0141005E
:1014670011014300200000004100140141001A014E
:100569007F06120BB47B017A00790012003E7F01ED
:100579007E001213B8900012EEF0A3EFF07F017E17
:10058900001212C3900015EEF0A3EFF07F007EC2B7
:100599007D017C0012119512080012111B12100026
:1005A900900000E07074A3E0704C900003E06401D7
:1005B90070447F0212120190003B7403F0A374E8A7
:1005C900F0A37403F0A374E8F07F007E367D6E7C9F
:1005D900011209FD9000017401F0E4900003F04359
:1005E9009008900018E0A3E0FD900012E0FAA3E063
:1005F900FB7F02120750900001E06401701CA3E028
:10060900640170167F021212017F011214A7E4908F
:100619000001F0A3F090000004F0900005E06403ED
:100629007001F0900006E06403706EF59190000D82
:10063900E5E6F090001FE5E7F0E0FE90000DE07CB4
:10064900002400FFEC3EFE900009F0A3EFF0FDACA2
:1006590006E41203317BEB7AA8792A783E120186E7
:1006690090001B12055D7F967E437D8B7C3C90003C
:100679001BE0F8A3E0F9A3E0FAA3E0FB120186125C
:10068900036A90000FEEF0A3EFF0E4900006F090FB
:100699000017E0FD7F0112136B20A52A900014E0DA
:1006A900FF3395E0FEEF64014E701B309518F0534F
:1006B90090F7900018E0A3E0FD900012E0FAA3E0A3
:1006C900FB7F0212075030A517900014E0FF339505
:1006D900E0FEEF4E700A30950704F07F0212120116
:1006E90030A52A90001AE0FF3395E0FEEF64014E31
:1006F900701B209518F0439008900018E0A3E0FDC6
:10070900900012E0FAA3E0FB7F0212075030A51710
:1007190090001AE0FF3395E0FEEF4E700A3095071E
:1007290004F07F02121201900006E070031214789F
:1007390020CF02A1A353C87F7DFF7F0312136B90C3
:0707490000067404F0A1A3F7
:10080000E4F59153B3F743B4085390F7F59143B12E
:100810000853B2F7F59143B11053B2EFF59143ACE1
:100820000153ADFEF59143B12053B2DFF59143B1D1
:100830000253B2FDF59143B32053B4DF75910243E7
:100840008920538ADFF59143AC4053ADBFF5914306
:10085000AC8053AD7FF59143AC0453ADFBF59153A0
:10086000B3F743B4085390F7F59153B3FD43B40283
:10087000F59153B1FE43B2015390FD5380FE43887E
:100880000143A80175910275F903F59143E901430C
:10089000EA0153EBFE75910275FA04F59143E90202
:1008A00043EA0253EBFD75910275FB36F59143E97E
:1008B0000443EA0453EBFB75910275FC37F5914351
:1008C000E90843EA0853EBF7F591439B02F591439E
:1008D000C91053C99FF5915393FC43930253F1F010
:1008E000439210439410F5915393F343930853F1BB
:1008F0000F43F120439220439420F591439B04D26F
:02090000AF2224
:1015030043900290003BE4F0A304F0A3E4F0A3743F
:1015130064F07F007E367D6E7C011209FD9000052C
:0A1523007401F0E4A3F043C80422B1
:1014780043800190003BE4F0A304F0A3E4F0A374DC
:1014880064F07F007E367D6E7C011209FD5380FE7C
:0F1498009000067401F0E4900005F043C80422B0
:10003E0074011203EBF582758300E41203FD900048
:0C004E0002E41203FD900003E40203FD35
:10111B00E4FFFEFDFC759102438910538AEFF591B4
:10112B0053E83043E80C759102F599439910F5910A
:10113B0043E10153E87F43E84030EFFDAFC3EF7568
:10114B00F010A4FFE5C2540F7C002FFDEC35F0FE30
:10115B00AF05E490003DF0A3F0A3F0A37464F07B23
:10116B00FF7A0FE4FDFC120ADB900018E06E7003AF
:10117B00A3E06F6014900018EEF0A3EFF09000184E
:09118B00E0A3E0FD7F0212136BEA
:011194002238
:10100000E4FFFEFDFC759102438902538AFDF591D0
:1010100053E83043E809759102F599439902F59137
:1010200043E10153E87F43E84030EFFDAFC3EF7584
:10103000F010A4FFE5C2540F7C002FFDEC35F0FE4C
:10104000AF05E490003DF0A3F0A3F0A37464F07B3F
:10105000FF7A0FE4FDFC120ADB900007E06E7003DC
:10106000A3E06F6030900007EEF0A3EFF090000E69
:10107000E064017020900007E0A3E0FD900015E01F
:10108000FAA3E0FB7F01120C85900007E0A3E0FDCE
:051090007F0312136B49
:011095002238
:10136B00EF24FE600E14601224027013900020ED27
:10137B00F0800C900021EDF08005900022EDF0E460
:10138B00FFEFFD3395E0FCC3ED9403EC6480948098
:10139B00501AC299EF3395E0FC74202DF58274003E
:0C13AB003CF583E0F5993099FD0F80D5EA
:0113B7002213
:1011950090003712055D75985043878053C4F8E475
:1011A500F59143C420900037E0F8A3E0F9A3E0FAF5
:1011B500A3E0FB7F607EE37D167C001204AAC3E4F6
:1011C5009FFFE49EFE74019DFDE49CFC78081205DA
:1011D5004A8FC6900037E0F8A3E0F9A3E0FAA3E050
:1011E500FB7F607EE37D167C001204AAC3E49FFFAB
:0C11F500E48FC5F59143C40853A8EF2215
:03000300021318CD
:10131800C0E0C0F0C083C082C0D075D000C000C09B
:1013280001C002C003C004C005C006C007C2AFC0E8
:10133800917F021212677F011214D590000B74027C
:10134800F05388FDD091D2AFD007D006D005D00495
:10135800D003D002D001D000D0D0D082D083D0F03A
:03136800D0E032A0
:03003B00020902B5
:10090200C0E0C0F0C083C082C0D075D000C000C0BB
:0D09120001C002C003C004C005C006C0073C
:10091F00C2AFC091900045E5ECF0E030E00F9000E1
:10092F0000E07009A3E064017003A304F090004598
:10093F00E5ECF0E030E10F900000E07009A3E0700B
:10094F000590000304F0900045E5ECF0E030E24440
:10095F00900000E0603EA3E070055390F7800343E2
:10096F009008900018E0A3E0FD900012E0FAA3E0D9
:10097F00FB7F02120750900000E4F090000E04F08D
:10098F00900007E0A3E0FD900015E0FAA3E0FB7FE5
:10099F0001120D3D900045E5ECF0E030E32E9000A4
:1009AF000EE06401601C900007E0A3E0FD900015CD
:1009BF00E0FAA3E0FB7F01120D3D90000E7401F0F1
:1009CF00800A7F011214D590000EE4F075EC00D070
:0309DF0091D2AF03
:1009E200D007D006D005D004D003D002D001D00069
:0B09F200D0D0D082D083D0F0D0E03213
:03006300021096F2
:0D109600C0E0C083C082C0D075D000C0078C
:1010A300C2AFC091759100AF92EF30E01F90000581
:1010B300E0640170097402F075E40075E5009000C6
:1010C30005E0640270067403F053C8FBAF92EF307F
:1010D300E11F900006E0640170097402F075E400FA
:1010E30075E500900006E0640270067403F053C8CF
:1010F300FB900006E064047001F07591005392FECA
:0D1103007591005392FD53C87FD091D2AF7B
:0B111000D007D0D0D082D083D0E032D6
:03001B00020011CF
:0A001100C09153887FD091D0913246
:03008B000200066A
:0B000600C091759100538FEFD0913234
:03002B0002001EB2
:08001E00C09153C87FD091325C
:1013B800E4F591538EBFF59153DFEFF59153DF3F7D
:1013C800F59153DFF843D810FCFD7BE87A03F9F870
:1013D80012041FAB07AA06A905A8047F007E367D64
:1013E8006E7C01121403AD07AC06E4F591ECF5D15F
:0A13F800EDF5D943D840AE04AF056F
:0114020022C7
:1012C30075910253B5EFE4F59175910253B53FF56E
:1012D3009175910253B5F8F59175910243B410FCE1
:1012E300FD7BE87A03F9F812041FAB07AA06A905E8
:1012F300A8047F007E367D6E7C01121403AD07AC1B
:1013030006759102ECF5D1EDF5D975910243B44020
:04131300AE04AF0570
:0113170022B3
:0B0C8500900037EFF0A3EAF0A3EBF0C3
:100C9000E4FBFAC2AFAF05AC07EC120336E4FBFA93
:100CA00079C8784212028FC004C005C006C0079000
:100CB0000038E0FCA3E0FDE4120331A804A905AA72
:100CC00006AB07D007D006D005D004120186120368
:100CD0006AAA06AB07900037E024FE60270470483C
:100CE0007591025389F7438A0875910253A3FC4317
:100CF000A30175910243B704E4F591759102EAF5F9
:100D0000AAEBF5B27591025389FB438A04759102EF
:100D100053A3F343A30475910243B702E4F591751D
:100D20009102EAF5AAEBF5B275910243B4407591D0
:0C0D30000243B480E4F59143D802D2AF36
:010D3C002294
:0B0D3D00900046EFF0A3EAF0A3EBF0FB
:100D4800E4FBFAC2AFAF05AC07EC120336E4FBFADA
:100D580079C8784212028FC004C005C006C0079047
:100D68000047E0FCA3E0FDE4120331A804A905AAAA
:100D780006AB07D007D006D005D0041201861203AF
:100D88006AAA06AB07900046E024FE602704704874
:100D98007591025389F7438A0875910253A3FC435E
:100DA800A30175910243B704E4F591759102EAF540
:100DB800AAEBF5B27591025389FB438A0475910237
:100DC80053A3F343A30475910243B702E4F5917565
:100DD8009102EAF5AAEBF5B275910243B440759118
:0C0DE8000243B480E4F59143D802D2AF7E
:010DF40022DC
:0B075000900046EFF0A3EAF0A3EBF0EE
:10075B00E4FBFAC2AFAF05AC07EC120336E4FBFACD
:10076B0079C8784212028FC004C005C006C007903A
:10077B000047E0FCA3E0FDE4120331A804A905AA9D
:10078B0006AB07D007D006D005D0041201861203A2
:10079B006AAA06AB07E4F591900046E024FE6026BA
:1007AB00047045E4F59153B3FB43B4045390FBF54C
:1007BB009143DE0175910253A3FCF591F591EAF596
:1007CB00D2EBF5DA8022E4F59153B3EF43B4105337
:1007DB0090EF75910143C60275910253A3F3F59106
:1007EB00F591EAF5D3EBF5DB43D84043D880D2AF94
:0107FB0022DB
:0B0EA700900049EFF0A3EAF0A3EBF08D
:100EB200E4FBFAAF05AC07EC120336E4FBFA79C89F
:100EC200784212028FC004C005C006C00790004AD3
:100ED200E0FCA3E0FDE4120331A804A905AA06ABD5
:100EE20007D007D006D005D00412018612036AAAE1
:100EF20006AB07E4F591900049E024FE60260470F9
:100F020044E4F59153B3FB43B4045390FBF591438E
:100F1200DE0175910253A3FCF591F591EAF5D2EB4E
:100F2200F5DA8021E4F59153B3FD43B4025390FD09
:100F3200F59143DE0275910253A3F3F591F591EA1F
:0B0F4200F5D3EBF5DB43D84043D8802B
:010F4D002281
:10120100C2AFEF24FE601B14602314602B14603303
:1012110014603B24057042E4F59153DEFE5390FBCC
:10122100804175910153C6FD5390EF8036E4F591ED
:1012310053DEFB5390FE802BE4F59153DEF7538090
:10124100FE8020E4F59153DEEF5380FD8015E4F537
:101251009153DEDF5380F7800AE4F591F5DE759155
:0612610001F5C6D2AF2228
:10126700EF24FE601A14602114602814602F1460A4
:10127700362405703CE4F59153DEFE5390FB22E4DF
:10128700F59153DEFD5390FD22E4F59153DEFB53B8
:1012970090FE22E4F59153DEF75380FE22E4F591A8
:1012A70053DEEF5380FD22E4F59153DEDF5380F7E1
:0C12B70022E4F591F5DE759101F5C622E8
:1014A700EF24FE601604702575910253A3FC759115
:1014B7000253B7FBE4F59153A0F72275910253A3AA
:0E14C700F375910253B7FDE4F59153A0FB229B
:1014D500EF24FE601604702575910253A3FC7591E7
:1014E5000253B7FBE4F59153A0F72275910253A37C
:0E14F500F375910253B7FDE4F59153A0FB226D
:100DF50090002312055D90002FE0F8A3E0F9A3E031
:100E0500FAA3E0FBA3E0FCA3E0FDA3E0FEA3E0C39F
:100E15009BFFEE9AFEED99FDEC98FCC004C005C061
:100E250006C007900027E0F8A3E0F9A3E0FAA3E0E5
:100E3500FB900023E0FCA3E0FDA3E0FEA3E0C39B41
:100E4500FFEE9AFEED99FDEC98FCD003D002D0019F
:100E5500D00012041FC004C005C006900027E0F8AA
:100E6500A3E0F9A3E0FAA3E0FBA3E0FCA3E0FDA364
:100E7500E0FEA3E0C39BFBEE9AFAED99F9EC98F836
:100E8500D006D005D00412140390002FE0F8A3E09B
:100E9500F9A3E0FAA3E02FFFEA3EFEE93DFDE83CB9
:020EA500FC222D
:0E0ADB00900037EEF0A3EFF0A3ECF0A3EDF0E7
:100AE90090003DE0FEA3E0FFC3900040E09FFF902F
:100AF900003FE09E900041F0A3EFF0900039E0FE46
:100B0900A3E0FFC3EB9FFFEA9E900043F0A3EFF041
:100B1900900037E0FCA3E0FDEC120331C004C005EE
:100B2900C006C007900039E0FCA3E0FDEC120331D8
:100B3900A804A905AA06AB07D007D006D005D0049A
:100B4900120091C004C005C006C007900041E0FC36
:100B5900A3E0FDEC120331D003D002D001D0001282
:100B69000186C004C005C006C007900043E0FCA38D
:100B7900E0FDEC120331A804A905AA06AB07D007CA
:100B8900D006D005D00412028FC004C005C006C02B
:100B99000790003DE0FCA3E0FDEC120331D003D047
:0B0BA90002D001D00012009502036A88
:0609FD0090003712055DB9
:100A0300E4F591F591538EF7F5915389F0438901FC
:100A13007B407A42790FF8900037E0FCA3E0FDA316
:100A2300E0FEA3E0FF1204AAA804A905AA06AB07E7
:100A330090003DE0FEA3E0FFE4FCFD12041FE47B15
:100A43000CFAF9F81204AAC374FF9FFF74FF9EE423
:100A53009DE49C90003FEFF07B407A42790F780051
:100A6300900037E0FCA3E0FDA3E0FEA3E0FF120447
:100A7300AAA804A905AA06AB0790003DE0FEA3E0DF
:100A8300FFE4FCFD12041FE47B0CFAF9F81204AA3C
:100A9300C374FF9FFF74FF9EFEE49DFDE49CFC78FE
:100AA3000812054A90003BE07002A3E06024900026
:100AB3003FE0F58A8F8C438810308DFD5388DF53D8
:100AC30088EF90003CE024FFF090003BE034FFF01F
:070AD30080D2E4F58AF58CE6
:010ADA0022F9
:100BB400E4F591EF24F9600C1460092402700875BF
:100BC400A638800375A630E4F591A2AF9200C2AFB7
:100BD40075C7AA75C755439F01A20092AFF5A775C3
:100BE400AF04F591A2AF9200C2AF75C7AA75C755FD
:100BF40043A401A20092AF85AE0B05A6F591A2AF66
:100C04009200C2AF75C7AA75C75543A401A200924A
:100C1400AF85AE0CF591A2AF9200C2AF75C7AA75AD
:100C2400C755539FFEA20092AFEF24F87027E50B3F
:100C340025E0FFE433FEE50C54017C002FFFEC3E7D
:100C4400FE74F12FFF74FF3EFEEF5401F50CEEC36A
:100C540013EF13F50B75C7AA75C755850B8475C7B4
:100C6400AA75C755850C85E4F591A2AF9200C2AF71
:100C740075C7AA75C755539FFEA20092AF5387EF5D
:010C8400224D
:10008E000203D6E86480F8E933E83360110460F0C7
:10009E00ED33EC337009E8FCE9FDEAFEEBFF2204D8
:1000AE0060DED3EB9FEA9EE99DE8C2E78CF0C2F7D3
:1000BE0095F0400CE8CCF8E9CDF9EACEFAEBCFFB9F
:1000CE001203A185D0F05804700320D5B3E8047054
:1000DE00075002B2D50203E092D5EC0460F7E4CCEF
:1000EE00C0E0C398F8603B94186008400DD0E0FB68
:1000FE000203B8E4FBFAC9FC8028E830E406E4C940
:10010E00FBE4CAFCE830E305E4C9CACBFCE85407BB
:10011E006010F8C3E913F9EA13FAEB13FBEC13FCC6
:10012E00D8F130F52FC3E49CFCEF9BFFEE9AFEED69
:10013E0099FDD0E0FBEF4E4D4C701222DB03020313
:10014E00DDEC2CFCEF33FFEE33FEED33FDED30E74F
:10015E00EB0203B8EF2BFFEE3AFEED39FDD0E0FBDC
:10016E0050130BBB00030203E0ED13FDEE13FEEF85
:08017E0013FFEC13FC0203B8AF
:10018600EC4D6011E8497017ED33EC3304600DE473
:10019600FCFFFEFD22E933E8330470F80203D612B1
:1001A60003A158046009E4CC2481500628500902B2
:1001B60003E02840030203DDC0E0EB4A7044B98047
:1001C60006D0E0FB0203CCEF4E701CBD8008EBFFAF
:1001D600EAFEE9FD80EBE98DF0A4FEE5F002026F90
:1001E600E9CDF9EAFEEBFFEF89F0A4FCE5F0CE8954
:1001F600F0A42EFFE435F0CD89F0A42DFEE435F011
:100206008067EF4E7005BD80D780C3EF8BF0A4AC3E
:10021600F0EE8BF0A42CFCE435F0F8EF8AF0A42C79
:10022600E5F038FCE433CB8DF0A42CFCE5F03BF88C
:10023600EE8AF0A42CFCE5F038F8E433CF89F0A47C
:100246002CFCE5F038CF3400CE89F0A42FFFE5F082
:100256003EFEE433C98DF0A42EFEE5F039CD8AF0DA
:10026600A42FFFE5F03EFEE43DFD33D0E0FB500752
:100276000BBB000F0203E0EC2CFCEF33FFEE33FE6A
:06028600ED33FD0203B898
:10028C000203E0EC5D046005E8590470030203D638
:10029C001203A1580460F6EC4860F2EC7004FDFE09
:1002AC00FF22C860DB2481C85009C3986002500645
:1002BC000203DD9850CAF582E9294B4A7005AB82DE
:1002CC000203CC75F0007C1A7880C3EF9BEE9AED9C
:1002DC0099400DC3EF9BFFEE9AFEED99FDE842F0BD
:1002EC00DC23ACF0D0E0FFD0E0FED0E0FDAB822010
:1002FC00E7101BEB60BAEC2CFCEF33FFEE33FEED9A
:10030C0033FD0203B8E803F830E705C0F075F000E0
:10031C00EF2FFFEE33FEED33FD40B830E7C280AA7D
:10032C0075F020800E75F010800575F0087D007E4C
:10033C00007F003392D530D50312053CEC334010CE
:10034C00EF33FFEE33FEED33FDEC33FCD5F0ED2255
:0E035C00E5F0247EA2D513CC92E7CDCEFF2291
:10036A00EDD2E7CD33EC3392D524814006E4FFFE8B
:10037A00FDFC22FCE4CFCECDCC24E0501174FF80EA
:10038A00EDC3CC13CCCD13CDCE13CECF13CF047087
:07039A00F030D5DE02053C46
:1003A100E9D2E7C933E833F892D5EDD2E7CD33ECA2
:0703B10033FC5002B2D5221B
:1003B800EC30E7100FBF000C0EBE00080DBD0004A6
:1003C8000BEB6014A2D5EB13FCED92E7FD2274FF52
:1003D800FCFDFEFF22E480F8A2D574FF13FC7D80AB
:0303E800E480EFBF
:100F6800020569E493A3F8E493A34003F68001F231
:100F780008DFF48029E493A3F85407240CC8C3338A
:100F8800C4540F4420C8834004F456800146F6DF59
:100F9800E4800B0102040810204080901447E47E8E
:100FA800019360BCA3FF543F30E509541FFEE4934E
:100FB800A360010ECF54C025E060A840B8E493A315
:100FC800FAE493A3F8E493A3C8C582C8CAC583CA40
:100FD800F0A3C8C582C8CAC583CADFE9DEE780BEF8
:011477000074
:1003EB00BB010689828A83F0225002F722BBFE01F1
:0203FB00F322EB
:1003FD00F8BB010DE58229F582E5833AF583E8F036
:10040D00225006E92582C8F622BBFE05E92582C8E1
:02041D00F222C9
:10041F00E88FF0A4CC8BF0A42CFCE98EF0A42CFC7C
:10042F008AF0EDA42CFCEA8EF0A4CDA8F08BF0A4FA
:10043F002DCC3825F0FDE98FF0A42CCD35F0FCEB59
:10044F008EF0A4FEA9F0EB8FF0A4CFC5F02ECD391E
:0F045F00FEE43CFCEAA42DCE35F0FDE43CFC228B
:10046E0075F008758200EF2FFFEE33FECD33CDCC45
:10047E0033CCC58233C5829BED9AEC99E5829840C8
:10048E000CF582EE9BFEED9AFDEC99FC0FD5F0D6A5
:10049E00E4CEFBE4CDFAE4CCF9A88222B800C1B9CF
:1004AE000059BA002DEC8BF084CFCECDFCE5F0CB0D
:1004BE00F97818EF2FFFEE33FEED33FDEC33FCEB46
:1004CE0033FB10D703994004EB99FB0FD8E5E4F901
:1004DE00FA227818EF2FFFEE33FEED33FDEC33FCEE
:1004EE00C933C910D7059BE99A4007EC9BFCE99AE2
:1004FE00F90FD8E0E4C9FAE4CCFB2275F010EF2F27
:10050E00FFEE33FEED33FDCC33CCC833C810D70726
:10051E009BEC9AE899400AED9BFDEC9AFCE899F861
:0E052E000FD5F0DAE4CDFBE4CCFAE4C8F922F4
:10140300C2D5E830E70FB2D5E4C39BFBE49AFAE414
:1014130099F9E498F8EC30E717B2D51214391204AD
:10142300AAE4C39BFBE49AFAE499F9E498F88003ED
:101433001204AA30D50DE4C39FFFE49EFEE49DFD94
:04144300E49CFC2207
:0E053C00C3E49FFFE49EFEE49DFDE49CFC22D0
:10054A00E8600FECC313FCED13FDEE13FEEF13FF8F
:03055A00D8F122B3
:0C055D00ECF0A3EDF0A3EEF0A3EFF02211
:00000001FF
