:03000000020F4BA1
:100F4B00787FE4F6D8FD9000007F007E08E4F0A3E4
:0A0F5B00DFFCDEFA758120020FA012
:10142E00410005004100060041000B01420018007A
:10143E0000420007000041000E0041000C01410077
:10144E0011014300200000004100140141001A0167
:100569007F06120BBD7B017A00790012001E7F0104
:100579007E0012139F900012EEF0A3EFF07F017E30
:10058900001212AA900015EEF0A3EFF07F007EC2D0
:100599007D017C0012117C12080012110912100051
:1005A90090000BE0FF3395E0FEEF4E707290000172
:1005B900E07046900003E06401703E7F021211E88A
:1005C90090003B7403F0A374E8F0A37403F0A374E0
:1005D900E8F07F007E367D6E7C01120A06900001EC
:1005E9007401F0439008900018A3E0FD900012E018
:1005F900FAA3E0FB7F02120DF8900001E06401709C
:100609001EA3E0640170187F021211E87F01121421
:100619005FE4900001F0A3F0A3F090000B04F090C8
:100629000005E064037001F0900006E06403706D5A
:10063900F59190000DE5E6F090001FE5E7F0E0FE8A
:1006490090000DE07C002400FFEC3EFE900009F0D4
:10065900A3EFF0FDAC06E41203317BBC7A3D79329D
:10066900783412018690001B12055DE4FBFA796863
:10067900784290001BE0FCA3E0FDA3E0FEA3E0FFAD
:1006890012028F12036A90000FEEF0A3EFF0E490CC
:100699000006F0900017E0FD7F0112135220A529F2
:1006A900900014E0FF3395E0FEEF64014E701A30BC
:1006B9009517F05390F7900018A3E0FD900012E011
:1006C900FAA3E0FB7F02120DF830A517900014E0A1
:1006D900FF3395E0FEEF4E700A30950704F07F0274
:1006E9001211E830A52990001AE0FF3395E0FEEFDA
:1006F90064014E701A209517F05390F7900018A3D3
:10070900E0FD900012E0FAA3E0FB7F02120DF83041
:10071900A51A90001AE0FF3395E0FEEF4E700D30F8
:10072900950A04F04390087F021211E820A502A15E
:0D073900A3209502A1A37F021211E8A1A345
:10080000E4F59153B3F743B4085390F7F59143B12E
:100810000853B2F7F59143B11053B2EFF59143ACE1
:100820000153ADFEF59143B12053B2DFF59143B1D1
:100830000253B2FDF59143B32053B4DF75910243E7
:100840008920538ADFF59143AC4053ADBFF5914306
:10085000AC8053AD7FF59143AC0453ADFBF59153A0
:10086000B3F743B4085390F7F59153B3FD43B40283
:10087000F59153B3FE43B4015390FD5380FE43887A
:100880000143A80175910275F903F59143E901430C
:10089000EA0153EBFE75910275FA04F59143E90202
:1008A00043EA0253EBFD75910275FB36F59143E97E
:1008B0000443EA0453EBFB75910275FC37F5914351
:1008C000E90843EA0853EBF7F591439B0253C8FE4E
:1008D000F59143C91053C99FF59153C97FF59153C1
:1008E00093FC43930253F1F0439210439410F5911B
:1008F0005393F343930853F10F43F1304392204352
:0A0900009420F59143C908D2AF22FC
:1014E70043900290003BE4F0A304F0A3E4F0A3745C
:1014F70064F07F007E367D6E7C01120A069000053F
:071507007401F0E4A3F022DF
:1014BB0043900190003BE4F0A304F0A3E4F0A37489
:1014CB0064F07F007E367D6E7C01120A065390FE1F
:0C14DB009000067401F0E4900005F0227F
:10001E0074011203EBF582758300E41203FD900068
:0C002E0002E41203FD900003E40203FD55
:10110900E4FFFEFDFC759102438910538AEFF591C6
:1011190053E83043E80C759102F599439910F5911C
:1011290043E10153E87F43E84030EFFDAFC3EF757A
:10113900F010A4FFE5C2540FFDE5F0FCEF4DAE043D
:10114900FFE490003DF0A3F0A3F0A37464F07BFFEB
:101159007A0FE4FDFC120AE4900018E06E7003A314
:10116900E06F600E900018EEF0A3EFF0FD7F021221
:0211790013520F
:01117B002251
:10100000E4FFFEFDFC759102438902538AFDF591D0
:1010100053E83043E809759102F599439902F59137
:1010200043E10153E87F43E84030EFFDAFC3EF7584
:10103000F010A4FFE5C2540FFDE5F0FCEF4DAE0447
:10104000FFE490003DF0A3F0A3F0A37464F07BFFF5
:101050007A0FE4FDFC120AE4900007E0FCA3E0FD37
:101060006F7002EC6E6028900018EEF0A3EFF09025
:10107000000EE064017018900015E0FAA3E0FB7F19
:0F10800001120746900007A3E0FD7F03121352F1
:01108F00223E
:10135200EF24FE600E14601224027013900020ED40
:10136200F0800C900021EDF08005900022EDF0E479
:10137200FFEFFD3395E0FCC3ED9403EC64809480B1
:10138200501AC299EF3395E0FC74202DF582740057
:0C1392003CF583E0F5993099FD0F80D503
:01139E00222C
:10117C0090003712055D75985043878053C4F8E48E
:10118C00F59143C420900037E0F8A3E0F9A3E0FA0E
:10119C00A3E0FB7F607EE37D167C001204AAC3E40F
:1011AC009FFFE49EFE74019DFDE49CFC78081205F3
:1011BC004A8FC6900037E0F8A3E0F9A3E0FAA3E069
:1011CC00FB7F607EE37D167C001204AAC3E49FFFC4
:0C11DC00E48FC5F59143C40853A8EF222E
:030003000212FFE7
:1012FF00C0E0C0F0C083C082C0D075D000C000C0B5
:10130F0001C002C003C004C005C006C007C2AFC001
:10131F00917F0212124E7F0112148D90000B7402F6
:10132F00F05388FDD091D2AFD007D006D005D004AE
:10133F00D003D002D001D000D0D0D082D083D0F053
:03134F00D0E032B9
:03003B0002090AAD
:10090A00C0E0C0F0C083C082C0D075D000C000C0B3
:0D091A0001C002C003C004C005C006C00734
:10092700C2AFC091900045E5ECF0E030E0129000D6
:100937000BE0FF3395E0FEEF4E700590000204F0E8
:10094700900045E5ECF0E030E11290000BE0FF335A
:1009570095E0FEEF4E700590000304F0900045E52A
:10096700ECF0E030E240900000E0603AA3E0700372
:100977005390F7439008900018A3E0FD900012E011
:10098700FAA3E0FB7F02120EA490000BE4F09000A4
:100997000E04F0900007A3E0FD900015E0FAA3E035
:1009A700FB7F01120C8E900045E5ECF0E030E32D63
:1009B70090000EE06401601B900007A3E0FD90002B
:1009C70015E0FAA3E0FB7F01120C8E90000E740174
:1009D700F0800A7F0112148D90000EE4F075EC0090
:0409E700D091D2AF2A
:1009EB00D007D006D005D004D003D002D001D00060
:0B09FB00D0D0D082D083D0F0D0E0320A
:03006300021090F8
:0D109000C0E0C083C082C0D075D000C00792
:10109D00C2AFC091759100AF92EF30E01F90000587
:1010AD00E0640170097402F075E40075E5009000CC
:1010BD0005E0640270067403F053C8FBAF92EF3085
:1010CD00E11F900006E0640170097402F075E40000
:1010DD0075E500900006E0640270067403F053C8D5
:1010ED00FB7591005392FE7591005392FDD091D2F4
:0110FD00AF43
:0B10FE00D007D0D0D082D083D0E032E9
:03001B00020011CF
:0A001100C09153887FD091D0913246
:03008B000200066A
:0B000600C091759100538FEFD0913234
:10139F00E4F591538EBFF59153DFEFF59153DF3F96
:1013AF00F59153DFF843D810FCFD7BE87A03F9F889
:1013BF0012041FAB07AA06A905A8047F007E367D7D
:1013CF006E7C011213EAAD07AC06E4F591ECF5D192
:0A13DF00EDF5D943D840AE04AF0588
:0113E90022E1
:1012AA0075910253B5EFE4F59175910253B53FF587
:1012BA009175910253B5F8F59175910243B410FCFA
:1012CA00FD7BE87A03F9F812041FAB07AA06A90501
:1012DA00A8047F007E367D6E7C011213EAAD07AC4E
:1012EA0006759102ECF5D1EDF5D975910243B4403A
:0412FA00AE04AF058A
:0112FE0022CD
:0B074600900037EFF0A3EAF0A3EBF007
:10075100E4FBFAC2AFAF05AC07EC120336E4FBFAD7
:1007610079C8784212028FC004C005C006C0079044
:100771000038E0FCA3E0FDE4120331A804A905AAB6
:1007810006AB07D007D006D005D0041201861203AC
:100791006AAA06AB07900037E024FE602704704880
:1007A1007591025389F7438A0875910253A3FC435B
:1007B100A30175910243B704E4F591759102EAF53D
:1007C100AAEBF5B27591025389FB438A0475910234
:1007D10053A3F343A30475910243B702E4F5917562
:1007E1009102EAF5AAEBF5B275910243B440759115
:0C07F1000243B480E4F59143D802D2AF7B
:0107FD0022D9
:0B0C8E00900046EFF0A3EAF0A3EBF0AB
:100C9900E4FBFAC2AFAF05AC07EC120336E4FBFA8A
:100CA90079C8784212028FC004C005C006C00790F7
:100CB9000047E0FCA3E0FDE4120331A804A905AA5A
:100CC90006AB07D007D006D005D00412018612035F
:100CD9006AAA06AB07900046E024FE602704704824
:100CE9007591025389F7438A0875910253A3FC430E
:100CF900A30175910243B704E4F591759102EAF5F0
:100D0900AAEBF5B27591025389FB438A04759102E6
:100D190053A3F343A30475910243B702E4F5917514
:100D29009102EAF5AAEBF5B275910243B4407591C7
:0C0D39000243B480E4F59143D802D2AF2D
:010D4500228B
:0B0DF800900037EFF0A3EAF0A3EBF04F
:100E0300E4FBFAC2AFAF05AC07EC120336E4FBFA1E
:100E130079C8784212028FC004C005C006C007908B
:100E23000038E0FCA3E0FDE4120331A804A905AAFD
:100E330006AB07D007D006D005D0041201861203F3
:100E43006AAA06AB07E4F591900037E024FE60261A
:100E5300047045E4F59153B3FB43B4045390FBF59D
:100E63009143DE0175910253A3FCF591F591EAF5E7
:100E7300D2EBF5DA8022E4F59153B3EF43B4105388
:100E830090FD75910143C60275910253A3F3F59149
:100E9300F591EAF5D3EBF5DB43D84043D880D2AFE5
:010EA300222C
:0B0EA400900046EFF0A3EAF0A3EBF093
:100EAF00E4FBFAAF05AC07EC120336E4FBFA79C8A2
:100EBF00784212028FC004C005C006C007900047D9
:100ECF00E0FCA3E0FDE4120331A804A905AA06ABD8
:100EDF0007D007D006D005D00412018612036AAAE4
:100EEF0006AB07E4F591900046E024FE60260470FF
:100EFF0044E4F59153B3FB43B4045390FBF5914392
:100F0F00DE0175910253A3FCF591F591EAF5D2EB51
:100F1F00F5DA8021E4F59153B3FD43B4025390FD0C
:100F2F00F59143DE0275910253A3F3F591F591EA22
:0B0F3F00F5D3EBF5DB43D84043D8802E
:010F4A002284
:1011E800C2AFEF24FE601B14602314602B1460331D
:1011F80014603B24057042E4F59153DEFE5390FBE6
:101208008041E4F59153DEFD5390FD8036E4F5917D
:1012180053DEFB5390FE802BE4F59153DEF75380A9
:10122800FE8020E4F59153DEEF5380FD8015E4F550
:101238009153DEDF5380F7800AE4F591F5DE75916E
:0612480001F5C6D2AF2241
:10124E00EF24FE601A14602114602814602F1460BD
:10125E00362405703CE4F59153DEFE5390FB22E4F8
:10126E00F59153DEFD5390FD22E4F59153DEFB53D1
:10127E0090FE22E4F59153DEF75380FE22E4F591C1
:10128E0053DEEF5380FD22E4F59153DEDF5380F7FA
:0C129E0022E4F591F5DE759101F5C62201
:10145F00EF24FE601604702575910253A3FC75915D
:10146F000253B7FBE4F59153A0F72275910253A3F2
:0E147F00F375910253B7FDE4F59153A0FB22E3
:10148D00EF24FE601604702575910253A3FC75912F
:10149D000253B7FBE4F59153A0F72275910253A3C4
:0E14AD00F375910253B7FDE4F59153A0FB22B5
:100D460090002312055D90002FE0F8A3E0F9A3E0E0
:100D5600FAA3E0FBA3E0FCA3E0FDA3E0FEA3E0C34F
:100D66009BFFEE9AFEED99FDEC98FCC004C005C011
:100D760006C007900027E0F8A3E0F9A3E0FAA3E095
:100D8600FB900023E0FCA3E0FDA3E0FEA3E0C39BF1
:100D9600FFEE9AFEED99FDEC98FCD003D002D0014F
:100DA600D00012041FC004C005C006900027E0F85A
:100DB600A3E0F9A3E0FAA3E0FBA3E0FCA3E0FDA314
:100DC600E0FEA3E0C39BFBEE9AFAED99F9EC98F8E6
:100DD600D006D005D0041213EA90002FE0F8A3E065
:100DE600F9A3E0FAA3E02FFFEA3EFEE93DFDE83C69
:020DF600FC22DD
:0E0AE400900037EEF0A3EFF0A3ECF0A3EDF0DE
:100AF20090003DE0FEA3E0FFC3900040E09FFF9026
:100B0200003FE09E900041F0A3EFF0900039E0FE3C
:100B1200A3E0FFC3EB9FFFEA9E900043F0A3EFF038
:100B2200900037E0FCA3E0FDEC120331C004C005E5
:100B3200C006C007900039E0FCA3E0FDEC120331CF
:100B4200A804A905AA06AB07D007D006D005D00491
:100B5200120091C004C005C006C007900041E0FC2D
:100B6200A3E0FDEC120331D003D002D001D0001279
:100B72000186C004C005C006C007900043E0FCA384
:100B8200E0FDEC120331A804A905AA06AB07D007C1
:100B9200D006D005D00412028FC004C005C006C022
:100BA2000790003DE0FCA3E0FDEC120331D003D03E
:0B0BB20002D001D00012009502036A7F
:060A060090003712055DAF
:100A0C00E4F591F591538EF7F5915389F0438901F3
:100A1C007B407A42790FF8900037E0FCA3E0FDA30D
:100A2C00E0FEA3E0FF1204AAA804A905AA06AB07DE
:100A3C0090003DE0FEA3E0FFE4FCFD12041FE47B0C
:100A4C000CFAF9F81204AAC374FF9FFF74FF9EE41A
:100A5C009DE49C90003FEFF07B407A42790F780048
:100A6C00900037E0FCA3E0FDA3E0FEA3E0FF12043E
:100A7C00AAA804A905AA06AB0790003DE0FEA3E0D6
:100A8C00FFE4FCFD12041FE47B0CFAF9F81204AA33
:100A9C00C374FF9FFF74FF9EFEE49DFDE49CFC78F5
:100AAC000812054A90003BE07002A3E0602490001D
:100ABC003FE0F58A8F8C438810308DFD5388DF53CF
:100ACC0088EF90003CE024FFF090003BE034FFF016
:070ADC0080D2E4F58AF58CDD
:010AE30022F0
:100BBD00E4F591EF24F9600C1460092402700875B6
:100BCD00A638800375A630E4F591A2AF9200C2AFAE
:100BDD0075C7AA75C755439F01A20092AFF5A775BA
:100BED00AF04F591A2AF9200C2AF75C7AA75C755F4
:100BFD0043A401A20092AF85AE0B05A6F591A2AF5D
:100C0D009200C2AF75C7AA75C75543A401A2009241
:100C1D00AF85AE0CF591A2AF9200C2AF75C7AA75A4
:100C2D00C755539FFEA20092AFEF24F87027E50B36
:100C3D0025E0FFE433FEE50C54017C002FFFEC3E74
:100C4D00FE74F12FFF74FF3EFEEF5401F50CEEC361
:100C5D0013EF13F50B75C7AA75C755850B8475C7AB
:100C6D00AA75C755850C85E4F591A2AF9200C2AF68
:100C7D0075C7AA75C755539FFEA20092AF5387EF54
:010C8D002244
:10008E000203D6E86480F8E933E83360110460F0C7
:10009E00ED33EC337009E8FCE9FDEAFEEBFF2204D8
:1000AE0060DED3EB9FEA9EE99DE8C2E78CF0C2F7D3
:1000BE0095F0400CE8CCF8E9CDF9EACEFAEBCFFB9F
:1000CE001203A185D0F05804700320D5B3E8047054
:1000DE00075002B2D50203E092D5EC0460F7E4CCEF
:1000EE00C0E0C398F8603B94186008400DD0E0FB68
:1000FE000203B8E4FBFAC9FC8028E830E406E4C940
:10010E00FBE4CAFCE830E305E4C9CACBFCE85407BB
:10011E006010F8C3E913F9EA13FAEB13FBEC13FCC6
:10012E00D8F130F52FC3E49CFCEF9BFFEE9AFEED69
:10013E0099FDD0E0FBEF4E4D4C701222DB03020313
:10014E00DDEC2CFCEF33FFEE33FEED33FDED30E74F
:10015E00EB0203B8EF2BFFEE3AFEED39FDD0E0FBDC
:10016E0050130BBB00030203E0ED13FDEE13FEEF85
:08017E0013FFEC13FC0203B8AF
:10018600EC4D6011E8497017ED33EC3304600DE473
:10019600FCFFFEFD22E933E8330470F80203D612B1
:1001A60003A158046009E4CC2481500628500902B2
:1001B60003E02840030203DDC0E0EB4A7044B98047
:1001C60006D0E0FB0203CCEF4E701CBD8008EBFFAF
:1001D600EAFEE9FD80EBE98DF0A4FEE5F002026F90
:1001E600E9CDF9EAFEEBFFEF89F0A4FCE5F0CE8954
:1001F600F0A42EFFE435F0CD89F0A42DFEE435F011
:100206008067EF4E7005BD80D780C3EF8BF0A4AC3E
:10021600F0EE8BF0A42CFCE435F0F8EF8AF0A42C79
:10022600E5F038FCE433CB8DF0A42CFCE5F03BF88C
:10023600EE8AF0A42CFCE5F038F8E433CF89F0A47C
:100246002CFCE5F038CF3400CE89F0A42FFFE5F082
:100256003EFEE433C98DF0A42EFEE5F039CD8AF0DA
:10026600A42FFFE5F03EFEE43DFD33D0E0FB500752
:100276000BBB000F0203E0EC2CFCEF33FFEE33FE6A
:06028600ED33FD0203B898
:10028C000203E0EC5D046005E8590470030203D638
:10029C001203A1580460F6EC4860F2EC7004FDFE09
:1002AC00FF22C860DB2481C85009C3986002500645
:1002BC000203DD9850CAF582E9294B4A7005AB82DE
:1002CC000203CC75F0007C1A7880C3EF9BEE9AED9C
:1002DC0099400DC3EF9BFFEE9AFEED99FDE842F0BD
:1002EC00DC23ACF0D0E0FFD0E0FED0E0FDAB822010
:1002FC00E7101BEB60BAEC2CFCEF33FFEE33FEED9A
:10030C0033FD0203B8E803F830E705C0F075F000E0
:10031C00EF2FFFEE33FEED33FD40B830E7C280AA7D
:10032C0075F020800E75F010800575F0087D007E4C
:10033C00007F003392D530D50312053CEC334010CE
:10034C00EF33FFEE33FEED33FDEC33FCD5F0ED2255
:0E035C00E5F0247EA2D513CC92E7CDCEFF2291
:10036A00EDD2E7CD33EC3392D524814006E4FFFE8B
:10037A00FDFC22FCE4CFCECDCC24E0501174FF80EA
:10038A00EDC3CC13CCCD13CDCE13CECF13CF047087
:07039A00F030D5DE02053C46
:1003A100E9D2E7C933E833F892D5EDD2E7CD33ECA2
:0703B10033FC5002B2D5221B
:1003B800EC30E7100FBF000C0EBE00080DBD0004A6
:1003C8000BEB6014A2D5EB13FCED92E7FD2274FF52
:1003D800FCFDFEFF22E480F8A2D574FF13FC7D80AB
:0303E800E480EFBF
:100F6500020569E493A3F8E493A34003F68001F234
:100F750008DFF48029E493A3F85407240CC8C3338D
:100F8500C4540F4420C8834004F456800146F6DF5C
:100F9500E4800B010204081020408090142EE47EAA
:100FA500019360BCA3FF543F30E509541FFEE49351
:100FB500A360010ECF54C025E060A840B8E493A318
:100FC500FAE493A3F8E493A3C8C582C8CAC583CA43
:100FD500F0A3C8C582C8CAC583CADFE9DEE780BEFB
:01145E00008D
:1003EB00BB010689828A83F0225002F722BBFE01F1
:0203FB00F322EB
:1003FD00F8BB010DE58229F582E5833AF583E8F036
:10040D00225006E92582C8F622BBFE05E92582C8E1
:02041D00F222C9
:10041F00E88FF0A4CC8BF0A42CFCE98EF0A42CFC7C
:10042F008AF0EDA42CFCEA8EF0A4CDA8F08BF0A4FA
:10043F002DCC3825F0FDE98FF0A42CCD35F0FCEB59
:10044F008EF0A4FEA9F0EB8FF0A4CFC5F02ECD391E
:0F045F00FEE43CFCEAA42DCE35F0FDE43CFC228B
:10046E0075F008758200EF2FFFEE33FECD33CDCC45
:10047E0033CCC58233C5829BED9AEC99E5829840C8
:10048E000CF582EE9BFEED9AFDEC99FC0FD5F0D6A5
:10049E00E4CEFBE4CDFAE4CCF9A88222B800C1B9CF
:1004AE000059BA002DEC8BF084CFCECDFCE5F0CB0D
:1004BE00F97818EF2FFFEE33FEED33FDEC33FCEB46
:1004CE0033FB10D703994004EB99FB0FD8E5E4F901
:1004DE00FA227818EF2FFFEE33FEED33FDEC33FCEE
:1004EE00C933C910D7059BE99A4007EC9BFCE99AE2
:1004FE00F90FD8E0E4C9FAE4CCFB2275F010EF2F27
:10050E00FFEE33FEED33FDCC33CCC833C810D70726
:10051E009BEC9AE899400AED9BFDEC9AFCE899F861
:0E052E000FD5F0DAE4CDFBE4CCFAE4C8F922F4
:1013EA00C2D5E830E70FB2D5E4C39BFBE49AFAE42E
:1013FA0099F9E498F8EC30E717B2D51214201204E0
:10140A00AAE4C39BFBE49AFAE499F9E498F8800306
:10141A001204AA30D50DE4C39FFFE49EFEE49DFDAD
:04142A00E49CFC2220
:0E053C00C3E49FFFE49EFEE49DFDE49CFC22D0
:10054A00E8600FECC313FCED13FDEE13FEEF13FF8F
:03055A00D8F122B3
:0C055D00ECF0A3EDF0A3EEF0A3EFF02211
:00000001FF
